{
  "_format": "hh3-artifact-1",
  "contractName": "AttestifyVault",
  "sourceName": "contracts/AttestifyVault.sol",
  "abi": [
    {
      "inputs": [
        {
          "internalType": "address",
          "name": "_cUSD",
          "type": "address"
        },
        {
          "internalType": "address",
          "name": "_acUSD",
          "type": "address"
        },
        {
          "internalType": "address",
          "name": "_selfProtocolHub",
          "type": "address"
        },
        {
          "internalType": "address",
          "name": "_aavePool",
          "type": "address"
        },
        {
          "internalType": "string",
          "name": "_scopeSeed",
          "type": "string"
        }
      ],
      "stateMutability": "nonpayable",
      "type": "constructor"
    },
    {
      "inputs": [],
      "name": "ConfigNotSet",
      "type": "error"
    },
    {
      "inputs": [],
      "name": "EnforcedPause",
      "type": "error"
    },
    {
      "inputs": [],
      "name": "ExceedsMaxDeposit",
      "type": "error"
    },
    {
      "inputs": [],
      "name": "ExceedsMaxTVL",
      "type": "error"
    },
    {
      "inputs": [],
      "name": "ExpectedPause",
      "type": "error"
    },
    {
      "inputs": [],
      "name": "InsufficientLiquidity",
      "type": "error"
    },
    {
      "inputs": [],
      "name": "InsufficientShares",
      "type": "error"
    },
    {
      "inputs": [],
      "name": "InvalidAmount",
      "type": "error"
    },
    {
      "inputs": [],
      "name": "InvalidDataFormat",
      "type": "error"
    },
    {
      "inputs": [],
      "name": "NotVerified",
      "type": "error"
    },
    {
      "inputs": [
        {
          "internalType": "address",
          "name": "owner",
          "type": "address"
        }
      ],
      "name": "OwnableInvalidOwner",
      "type": "error"
    },
    {
      "inputs": [
        {
          "internalType": "address",
          "name": "account",
          "type": "address"
        }
      ],
      "name": "OwnableUnauthorizedAccount",
      "type": "error"
    },
    {
      "inputs": [],
      "name": "ReentrancyGuardReentrantCall",
      "type": "error"
    },
    {
      "inputs": [
        {
          "internalType": "address",
          "name": "token",
          "type": "address"
        }
      ],
      "name": "SafeERC20FailedOperation",
      "type": "error"
    },
    {
      "inputs": [],
      "name": "UnauthorizedCaller",
      "type": "error"
    },
    {
      "inputs": [],
      "name": "ZeroAddress",
      "type": "error"
    },
    {
      "anonymous": false,
      "inputs": [
        {
          "indexed": false,
          "internalType": "bytes32",
          "name": "newConfigId",
          "type": "bytes32"
        }
      ],
      "name": "ConfigIdUpdated",
      "type": "event"
    },
    {
      "anonymous": false,
      "inputs": [
        {
          "indexed": false,
          "internalType": "uint256",
          "name": "amount",
          "type": "uint256"
        },
        {
          "indexed": false,
          "internalType": "uint256",
          "name": "timestamp",
          "type": "uint256"
        }
      ],
      "name": "DeployedToAave",
      "type": "event"
    },
    {
      "anonymous": false,
      "inputs": [
        {
          "indexed": true,
          "internalType": "address",
          "name": "user",
          "type": "address"
        },
        {
          "indexed": false,
          "internalType": "uint256",
          "name": "assets",
          "type": "uint256"
        },
        {
          "indexed": false,
          "internalType": "uint256",
          "name": "shares",
          "type": "uint256"
        }
      ],
      "name": "Deposited",
      "type": "event"
    },
    {
      "anonymous": false,
      "inputs": [
        {
          "indexed": true,
          "internalType": "address",
          "name": "previousOwner",
          "type": "address"
        },
        {
          "indexed": true,
          "internalType": "address",
          "name": "newOwner",
          "type": "address"
        }
      ],
      "name": "OwnershipTransferred",
      "type": "event"
    },
    {
      "anonymous": false,
      "inputs": [
        {
          "indexed": false,
          "internalType": "address",
          "name": "account",
          "type": "address"
        }
      ],
      "name": "Paused",
      "type": "event"
    },
    {
      "anonymous": false,
      "inputs": [
        {
          "indexed": false,
          "internalType": "uint256",
          "name": "aaveBalance",
          "type": "uint256"
        },
        {
          "indexed": false,
          "internalType": "uint256",
          "name": "reserveBalance",
          "type": "uint256"
        },
        {
          "indexed": false,
          "internalType": "uint256",
          "name": "timestamp",
          "type": "uint256"
        }
      ],
      "name": "Rebalanced",
      "type": "event"
    },
    {
      "anonymous": false,
      "inputs": [
        {
          "indexed": true,
          "internalType": "address",
          "name": "user",
          "type": "address"
        },
        {
          "indexed": false,
          "internalType": "enum AttestifyVault.StrategyType",
          "name": "oldStrategy",
          "type": "uint8"
        },
        {
          "indexed": false,
          "internalType": "enum AttestifyVault.StrategyType",
          "name": "newStrategy",
          "type": "uint8"
        }
      ],
      "name": "StrategyChanged",
      "type": "event"
    },
    {
      "anonymous": false,
      "inputs": [
        {
          "indexed": false,
          "internalType": "address",
          "name": "account",
          "type": "address"
        }
      ],
      "name": "Unpaused",
      "type": "event"
    },
    {
      "anonymous": false,
      "inputs": [
        {
          "indexed": true,
          "internalType": "address",
          "name": "user",
          "type": "address"
        },
        {
          "indexed": false,
          "internalType": "uint256",
          "name": "userIdentifier",
          "type": "uint256"
        },
        {
          "indexed": false,
          "internalType": "uint256",
          "name": "timestamp",
          "type": "uint256"
        }
      ],
      "name": "UserVerified",
      "type": "event"
    },
    {
      "anonymous": false,
      "inputs": [
        {
          "indexed": true,
          "internalType": "address",
          "name": "user",
          "type": "address"
        },
        {
          "indexed": false,
          "internalType": "uint256",
          "name": "assets",
          "type": "uint256"
        },
        {
          "indexed": false,
          "internalType": "uint256",
          "name": "shares",
          "type": "uint256"
        }
      ],
      "name": "Withdrawn",
      "type": "event"
    },
    {
      "anonymous": false,
      "inputs": [
        {
          "indexed": false,
          "internalType": "uint256",
          "name": "amount",
          "type": "uint256"
        },
        {
          "indexed": false,
          "internalType": "uint256",
          "name": "timestamp",
          "type": "uint256"
        }
      ],
      "name": "WithdrawnFromAave",
      "type": "event"
    },
    {
      "inputs": [],
      "name": "MAX_DEPOSIT",
      "outputs": [
        {
          "internalType": "uint256",
          "name": "",
          "type": "uint256"
        }
      ],
      "stateMutability": "view",
      "type": "function"
    },
    {
      "inputs": [],
      "name": "MAX_TVL",
      "outputs": [
        {
          "internalType": "uint256",
          "name": "",
          "type": "uint256"
        }
      ],
      "stateMutability": "view",
      "type": "function"
    },
    {
      "inputs": [],
      "name": "MIN_DEPOSIT",
      "outputs": [
        {
          "internalType": "uint256",
          "name": "",
          "type": "uint256"
        }
      ],
      "stateMutability": "view",
      "type": "function"
    },
    {
      "inputs": [],
      "name": "RESERVE_RATIO",
      "outputs": [
        {
          "internalType": "uint256",
          "name": "",
          "type": "uint256"
        }
      ],
      "stateMutability": "view",
      "type": "function"
    },
    {
      "inputs": [],
      "name": "aavePool",
      "outputs": [
        {
          "internalType": "contract IPool",
          "name": "",
          "type": "address"
        }
      ],
      "stateMutability": "view",
      "type": "function"
    },
    {
      "inputs": [],
      "name": "acUSD",
      "outputs": [
        {
          "internalType": "contract IAToken",
          "name": "",
          "type": "address"
        }
      ],
      "stateMutability": "view",
      "type": "function"
    },
    {
      "inputs": [],
      "name": "aiAgent",
      "outputs": [
        {
          "internalType": "address",
          "name": "",
          "type": "address"
        }
      ],
      "stateMutability": "view",
      "type": "function"
    },
    {
      "inputs": [
        {
          "internalType": "address",
          "name": "user",
          "type": "address"
        }
      ],
      "name": "balanceOf",
      "outputs": [
        {
          "internalType": "uint256",
          "name": "",
          "type": "uint256"
        }
      ],
      "stateMutability": "view",
      "type": "function"
    },
    {
      "inputs": [],
      "name": "cUSD",
      "outputs": [
        {
          "internalType": "contract IERC20",
          "name": "",
          "type": "address"
        }
      ],
      "stateMutability": "view",
      "type": "function"
    },
    {
      "inputs": [
        {
          "internalType": "enum AttestifyVault.StrategyType",
          "name": "newStrategy",
          "type": "uint8"
        }
      ],
      "name": "changeStrategy",
      "outputs": [],
      "stateMutability": "nonpayable",
      "type": "function"
    },
    {
      "inputs": [],
      "name": "configId",
      "outputs": [
        {
          "internalType": "bytes32",
          "name": "",
          "type": "bytes32"
        }
      ],
      "stateMutability": "view",
      "type": "function"
    },
    {
      "inputs": [
        {
          "internalType": "uint256",
          "name": "assets",
          "type": "uint256"
        }
      ],
      "name": "deposit",
      "outputs": [
        {
          "internalType": "uint256",
          "name": "sharesIssued",
          "type": "uint256"
        }
      ],
      "stateMutability": "nonpayable",
      "type": "function"
    },
    {
      "inputs": [
        {
          "internalType": "address",
          "name": "token",
          "type": "address"
        },
        {
          "internalType": "uint256",
          "name": "amount",
          "type": "uint256"
        }
      ],
      "name": "emergencyWithdraw",
      "outputs": [],
      "stateMutability": "nonpayable",
      "type": "function"
    },
    {
      "inputs": [
        {
          "internalType": "bytes32",
          "name": "destinationChainId",
          "type": "bytes32"
        },
        {
          "internalType": "bytes32",
          "name": "userIdentifier",
          "type": "bytes32"
        },
        {
          "internalType": "bytes",
          "name": "userDefinedData",
          "type": "bytes"
        }
      ],
      "name": "getConfigId",
      "outputs": [
        {
          "internalType": "bytes32",
          "name": "",
          "type": "bytes32"
        }
      ],
      "stateMutability": "view",
      "type": "function"
    },
    {
      "inputs": [],
      "name": "getCurrentAPY",
      "outputs": [
        {
          "internalType": "uint256",
          "name": "",
          "type": "uint256"
        }
      ],
      "stateMutability": "view",
      "type": "function"
    },
    {
      "inputs": [
        {
          "internalType": "address",
          "name": "user",
          "type": "address"
        }
      ],
      "name": "getEarnings",
      "outputs": [
        {
          "internalType": "uint256",
          "name": "",
          "type": "uint256"
        }
      ],
      "stateMutability": "view",
      "type": "function"
    },
    {
      "inputs": [],
      "name": "getVaultStats",
      "outputs": [
        {
          "internalType": "uint256",
          "name": "_totalAssets",
          "type": "uint256"
        },
        {
          "internalType": "uint256",
          "name": "_totalShares",
          "type": "uint256"
        },
        {
          "internalType": "uint256",
          "name": "reserveBalance",
          "type": "uint256"
        },
        {
          "internalType": "uint256",
          "name": "aaveBalance",
          "type": "uint256"
        },
        {
          "internalType": "uint256",
          "name": "_totalDeposited",
          "type": "uint256"
        },
        {
          "internalType": "uint256",
          "name": "_totalWithdrawn",
          "type": "uint256"
        }
      ],
      "stateMutability": "view",
      "type": "function"
    },
    {
      "inputs": [
        {
          "internalType": "address",
          "name": "user",
          "type": "address"
        }
      ],
      "name": "isVerified",
      "outputs": [
        {
          "internalType": "bool",
          "name": "",
          "type": "bool"
        }
      ],
      "stateMutability": "view",
      "type": "function"
    },
    {
      "inputs": [],
      "name": "lastRebalance",
      "outputs": [
        {
          "internalType": "uint256",
          "name": "",
          "type": "uint256"
        }
      ],
      "stateMutability": "view",
      "type": "function"
    },
    {
      "inputs": [
        {
          "internalType": "bytes",
          "name": "output",
          "type": "bytes"
        },
        {
          "internalType": "bytes",
          "name": "userData",
          "type": "bytes"
        }
      ],
      "name": "onVerificationSuccess",
      "outputs": [],
      "stateMutability": "nonpayable",
      "type": "function"
    },
    {
      "inputs": [],
      "name": "owner",
      "outputs": [
        {
          "internalType": "address",
          "name": "",
          "type": "address"
        }
      ],
      "stateMutability": "view",
      "type": "function"
    },
    {
      "inputs": [],
      "name": "pause",
      "outputs": [],
      "stateMutability": "nonpayable",
      "type": "function"
    },
    {
      "inputs": [],
      "name": "paused",
      "outputs": [
        {
          "internalType": "bool",
          "name": "",
          "type": "bool"
        }
      ],
      "stateMutability": "view",
      "type": "function"
    },
    {
      "inputs": [],
      "name": "rebalance",
      "outputs": [],
      "stateMutability": "nonpayable",
      "type": "function"
    },
    {
      "inputs": [],
      "name": "renounceOwnership",
      "outputs": [],
      "stateMutability": "nonpayable",
      "type": "function"
    },
    {
      "inputs": [],
      "name": "scope",
      "outputs": [
        {
          "internalType": "uint256",
          "name": "",
          "type": "uint256"
        }
      ],
      "stateMutability": "view",
      "type": "function"
    },
    {
      "inputs": [
        {
          "internalType": "address",
          "name": "_aiAgent",
          "type": "address"
        }
      ],
      "name": "setAIAgent",
      "outputs": [],
      "stateMutability": "nonpayable",
      "type": "function"
    },
    {
      "inputs": [
        {
          "internalType": "bytes32",
          "name": "_configId",
          "type": "bytes32"
        }
      ],
      "name": "setConfigId",
      "outputs": [],
      "stateMutability": "nonpayable",
      "type": "function"
    },
    {
      "inputs": [
        {
          "internalType": "address",
          "name": "_treasury",
          "type": "address"
        }
      ],
      "name": "setTreasury",
      "outputs": [],
      "stateMutability": "nonpayable",
      "type": "function"
    },
    {
      "inputs": [
        {
          "internalType": "address",
          "name": "",
          "type": "address"
        }
      ],
      "name": "shares",
      "outputs": [
        {
          "internalType": "uint256",
          "name": "",
          "type": "uint256"
        }
      ],
      "stateMutability": "view",
      "type": "function"
    },
    {
      "inputs": [
        {
          "internalType": "enum AttestifyVault.StrategyType",
          "name": "",
          "type": "uint8"
        }
      ],
      "name": "strategies",
      "outputs": [
        {
          "internalType": "string",
          "name": "name",
          "type": "string"
        },
        {
          "internalType": "uint8",
          "name": "aaveAllocation",
          "type": "uint8"
        },
        {
          "internalType": "uint8",
          "name": "reserveAllocation",
          "type": "uint8"
        },
        {
          "internalType": "uint16",
          "name": "targetAPY",
          "type": "uint16"
        },
        {
          "internalType": "uint8",
          "name": "riskLevel",
          "type": "uint8"
        },
        {
          "internalType": "bool",
          "name": "isActive",
          "type": "bool"
        }
      ],
      "stateMutability": "view",
      "type": "function"
    },
    {
      "inputs": [],
      "name": "totalAssets",
      "outputs": [
        {
          "internalType": "uint256",
          "name": "",
          "type": "uint256"
        }
      ],
      "stateMutability": "view",
      "type": "function"
    },
    {
      "inputs": [],
      "name": "totalDeposited",
      "outputs": [
        {
          "internalType": "uint256",
          "name": "",
          "type": "uint256"
        }
      ],
      "stateMutability": "view",
      "type": "function"
    },
    {
      "inputs": [],
      "name": "totalShares",
      "outputs": [
        {
          "internalType": "uint256",
          "name": "",
          "type": "uint256"
        }
      ],
      "stateMutability": "view",
      "type": "function"
    },
    {
      "inputs": [],
      "name": "totalWithdrawn",
      "outputs": [
        {
          "internalType": "uint256",
          "name": "",
          "type": "uint256"
        }
      ],
      "stateMutability": "view",
      "type": "function"
    },
    {
      "inputs": [
        {
          "internalType": "address",
          "name": "newOwner",
          "type": "address"
        }
      ],
      "name": "transferOwnership",
      "outputs": [],
      "stateMutability": "nonpayable",
      "type": "function"
    },
    {
      "inputs": [],
      "name": "treasury",
      "outputs": [
        {
          "internalType": "address",
          "name": "",
          "type": "address"
        }
      ],
      "stateMutability": "view",
      "type": "function"
    },
    {
      "inputs": [],
      "name": "unpause",
      "outputs": [],
      "stateMutability": "nonpayable",
      "type": "function"
    },
    {
      "inputs": [
        {
          "internalType": "address",
          "name": "",
          "type": "address"
        }
      ],
      "name": "userStrategy",
      "outputs": [
        {
          "internalType": "enum AttestifyVault.StrategyType",
          "name": "",
          "type": "uint8"
        }
      ],
      "stateMutability": "view",
      "type": "function"
    },
    {
      "inputs": [
        {
          "internalType": "address",
          "name": "",
          "type": "address"
        }
      ],
      "name": "users",
      "outputs": [
        {
          "internalType": "bool",
          "name": "isVerified",
          "type": "bool"
        },
        {
          "internalType": "uint256",
          "name": "verifiedAt",
          "type": "uint256"
        },
        {
          "internalType": "uint256",
          "name": "totalDeposited",
          "type": "uint256"
        },
        {
          "internalType": "uint256",
          "name": "totalWithdrawn",
          "type": "uint256"
        },
        {
          "internalType": "uint256",
          "name": "lastActionTime",
          "type": "uint256"
        },
        {
          "internalType": "uint256",
          "name": "userIdentifier",
          "type": "uint256"
        }
      ],
      "stateMutability": "view",
      "type": "function"
    },
    {
      "inputs": [
        {
          "internalType": "bytes",
          "name": "proofPayload",
          "type": "bytes"
        },
        {
          "internalType": "bytes",
          "name": "userContextData",
          "type": "bytes"
        }
      ],
      "name": "verifySelfProof",
      "outputs": [],
      "stateMutability": "nonpayable",
      "type": "function"
    },
    {
      "inputs": [
        {
          "internalType": "uint256",
          "name": "assets",
          "type": "uint256"
        }
      ],
      "name": "withdraw",
      "outputs": [
        {
          "internalType": "uint256",
          "name": "sharesBurned",
          "type": "uint256"
        }
      ],
      "stateMutability": "nonpayable",
      "type": "function"
    }
  ],
  "bytecode": "0x610100604052348015610010575f5ffd5b506040516133be3803806133be83398101604081905261002f91610a46565b6001600160a01b038316608052338382610051308261004c61012e565b610181565b5f5550506001600160a01b03811661008357604051631e4fbdf760e01b81525f60048201526024015b60405180910390fd5b61008c81610238565b5060016002556001600160a01b03851615806100af57506001600160a01b038416155b806100c157506001600160a01b038316155b806100d357506001600160a01b038216155b156100f15760405163d92e233d60e01b815260040160405180910390fd5b6001600160a01b0380861660a05284811660c052821660e052600b80546001600160a01b03191633179055610124610289565b5050505050610d22565b5f4661a4ec8190036101555773f134707a4c4a3a76b8410fc0294d620a7c34158191505090565b8062aa044c0361017a57730a782f7f9f8aac6e0bacaf3cd4aa292c3275c6f291505090565b5f91505090565b5f6001600160a01b03821661019757505f610231565b5f6101a285846105ad565b90505f6101ae8561066c565b604080518082018252848152602081018390529051632b0aac7f60e11b81529192506001600160a01b0386169163561558fe916101ed91600401610b38565b602060405180830381865afa158015610208573d5f5f3e3d5ffd5b505050506040513d601f19601f8201168201806040525081019061022c9190610b68565b925050505b9392505050565b600180546001600160a01b038381166001600160a01b0319831681179093556040519116919082907f8be0079c531659141344cd1fd0a4f28419497f9722a3daafe3b4186f6b6457e0905f90a35050565b6040805161010081018252600c60c082019081526b436f6e73657276617469766560a01b60e0830152815260646020808301919091525f92820183905261015e606083015260016080830181905260a0830152918052600990915280517fec8156718a8372b1db44bb411437d0870f3e3790d4a08526d024ce1b0b668f6b9081906103149082610c03565b50602082810151600192830180546040808701516060808901516080808b015160a09b8c015160ff998a1661ffff1990981697909717610100958a1686021764ffffff000019166201000061ffff9094169390930260ff60201b19169290921764010000000098909216979097021760ff60281b191665010000000000941515949094029390931790935580519283018152600860c084019081526710985b185b98d95960c21b60e08501528352605a83860152600a9083015261015e908201526003918101919091529283018290525f919091526009905280517f92e85d02570a8092d09a6e3a57665bc3815a2699a4074001bf1ccabf660f5a3690819061041d9082610c03565b50602082810151600192830180546040808701516060808901516080808b015160a09b8c015160ff998a1661ffff1990981697909717610100958a1686021764ffffff000019166201000061ffff9094169390930260ff60201b19169290921764010000000098909216979097021760ff60281b191665010000000000941515949094029390931790935580519283018152600660c084019081526508ee4deeee8d60d31b60e0850152835260508386015260149083015261015e908201526005918101919091529283019190915260025f526009905280517f6cde3cea4b3a3fb2488b2808bae7556f4a405e50f65e1794383bc026131b13c39081906105249082610c03565b5060208201516001909101805460408401516060850151608086015160a0909601511515650100000000000260ff60281b1960ff9788166401000000000260ff60201b1961ffff90941662010000029390931664ffffff0000199489166101000261ffff1990961698909716979097179390931791909116939093179290921792909216179055565b5f806105b88461077d565b90505f6105cf6105ca8383601f610957565b61066c565b90505f6105e26105ca84601f602a610957565b604080518082018252848152602081018390529051632b0aac7f60e11b81529192506001600160a01b0387169163561558fe9161062191600401610b38565b602060405180830381865afa15801561063c573d5f5f3e3d5ffd5b505050506040513d601f19601f820116820180604052508101906106609190610b68565b93505050505b92915050565b5f5f829050601f815111156106d15760405162461bcd60e51b815260206004820152602560248201527f537472696e6720746f6f206c6f6e6720666f7220426967496e7420636f6e76656044820152643939b4b7b760d91b606482015260840161007a565b5f805b825181101561077557607f8382815181106106f1576106f1610cbd565b016020015160f81c11156107475760405162461bcd60e51b815260206004820152601c60248201527f4e6f6e2d41534349492063686172616374657220646574656374656400000000604482015260640161007a565b82818151811061075957610759610cbd565b60209101015160f81c60089290921b91909117906001016106d4565b509392505050565b604080518082018252601081526f181899199a1a9b1b9c1cb0b131b232b360811b60208201528151602a80825260608281019094526001600160a01b03851692915f91602082018180368337019050509050600360fc1b815f815181106107e6576107e6610cbd565b60200101906001600160f81b03191690815f1a905350600f60fb1b8160018151811061081457610814610cbd565b60200101906001600160f81b03191690815f1a9053505f5b601481101561094e578260048561084484600c610ce5565b6020811061085457610854610cbd565b1a60f81b6001600160f81b031916901c60f81c60ff168151811061087a5761087a610cbd565b01602001516001600160f81b03191682610895836002610cf8565b6108a0906002610ce5565b815181106108b0576108b0610cbd565b60200101906001600160f81b03191690815f1a90535082846108d383600c610ce5565b602081106108e3576108e3610cbd565b825191901a600f169081106108fa576108fa610cbd565b01602001516001600160f81b03191682610915836002610cf8565b610920906003610ce5565b8151811061093057610930610cbd565b60200101906001600160f81b03191690815f1a90535060010161082c565b50949350505050565b6060835f6109658585610d0f565b6001600160401b0381111561097c5761097c610a32565b6040519080825280601f01601f1916602001820160405280156109a6576020820181803683370190505b509050845b84811015610a0d578281815181106109c5576109c5610cbd565b01602001516001600160f81b031916826109df8884610d0f565b815181106109ef576109ef610cbd565b60200101906001600160f81b03191690815f1a9053506001016109ab565b5095945050505050565b80516001600160a01b0381168114610a2d575f5ffd5b919050565b634e487b7160e01b5f52604160045260245ffd5b5f5f5f5f5f60a08688031215610a5a575f5ffd5b610a6386610a17565b9450610a7160208701610a17565b9350610a7f60408701610a17565b9250610a8d60608701610a17565b60808701519092506001600160401b03811115610aa8575f5ffd5b8601601f81018813610ab8575f5ffd5b80516001600160401b03811115610ad157610ad1610a32565b604051601f8201601f19908116603f011681016001600160401b0381118282101715610aff57610aff610a32565b6040528181528282016020018a1015610b16575f5ffd5b8160208401602083015e5f602083830101528093505050509295509295909350565b6040810181835f5b6002811015610b5f578151835260209283019290910190600101610b40565b50505092915050565b5f60208284031215610b78575f5ffd5b5051919050565b600181811c90821680610b9357607f821691505b602082108103610bb157634e487b7160e01b5f52602260045260245ffd5b50919050565b601f821115610bfe57805f5260205f20601f840160051c81016020851015610bdc5750805b601f840160051c820191505b81811015610bfb575f8155600101610be8565b50505b505050565b81516001600160401b03811115610c1c57610c1c610a32565b610c3081610c2a8454610b7f565b84610bb7565b6020601f821160018114610c62575f8315610c4b5750848201515b5f19600385901b1c1916600184901b178455610bfb565b5f84815260208120601f198516915b82811015610c915787850151825560209485019460019092019101610c71565b5084821015610cae57868401515f19600387901b60f8161c191681555b50505050600190811b01905550565b634e487b7160e01b5f52603260045260245ffd5b634e487b7160e01b5f52601160045260245ffd5b8082018082111561066657610666610cd1565b808202811582820484141761066657610666610cd1565b8181038181111561066657610666610cd1565b60805160a05160c05160e0516125e4610dda5f395f818161043f015281816116fa0152818161191e015281816119fb0152611ae501525f81816102aa015281816106d101528181610dfe01526110b501525f81816102e901528181610646015281816109ea01528181610a8a01528181610d0a01528181610e840152818161102f015281816112e7015281816116c301528181611948015281816119d40152611aaa01525f8181610f3401526114df01526125e45ff3fe608060405234801561000f575f5ffd5b5060043610610255575f3560e01c80638da5cb5b11610140578063b8127fac116100bf578063dd5967c311610084578063dd5967c3146105ce578063e1e158a5146105df578063e37dbfd9146105ee578063f0f44260146105f6578063f2fde38b14610609578063ff50abdc1461061c575f5ffd5b8063b8127fac1461054d578063b9209e331461055e578063c385abae14610589578063ce7c2ac21461059c578063d161802b146105bb575f5ffd5b8063a6d5b73211610105578063a6d5b73214610496578063a87430ba146104a9578063ada1b3191461051e578063b564eb2714610531578063b6b55f251461053a575f5ffd5b80638da5cb5b1461040e57806395ccea671461041f578063962ca49614610432578063a03e4bc31461043a578063a59aa5a614610461575f5ffd5b80634b319713116101d75780636ebe941b1161019c5780636ebe941b146103bd57806370a08231146103d0578063715018a6146103e35780637d7c2a1c146103eb5780638456cb59146103f35780638d2d8d6a146103fb575f5ffd5b80634b3197131461035e5780635c975abb1461036757806361d027b31461037e578063667316e9146103915780636e62d0a8146103b6575f5ffd5b80631fccf6721161021d5780631fccf672146102e45780632e1a7d4d1461030b5780633a98ef391461031e5780633f4ba83a14610327578063457cf68c1461032f575f5ffd5b806301e1d114146102595780630ffe355c14610274578063106b9ca114610289578063131b9c041461029257806314eb8e9c146102a5575b5f5ffd5b610261610625565b6040519081526020015b60405180910390f35b610287610282366004611d22565b61074d565b005b610261600e5481565b6102616102a0366004611d56565b610880565b6102cc7f000000000000000000000000000000000000000000000000000000000000000081565b6040516001600160a01b03909116815260200161026b565b6102cc7f000000000000000000000000000000000000000000000000000000000000000081565b610261610319366004611d6f565b610902565b61026160055481565b610287610afc565b61035161033d366004611d56565b60086020525f908152604090205460ff1681565b60405161026b9190611dba565b610261600d5481565b60035460ff165b604051901515815260200161026b565b600b546102cc906001600160a01b031681565b6103a461039f366004611d22565b610b0e565b60405161026b96959493929190611df6565b5f54610261565b6102876103cb366004611d56565b610bde565b6102616103de366004611d56565b610c2f565b610287610c56565b610287610c67565b610287610f19565b610287610409366004611f24565b610f29565b6001546001600160a01b03166102cc565b61028761042d366004611f87565b610f98565b61015e610261565b6102cc7f000000000000000000000000000000000000000000000000000000000000000081565b610469611009565b604080519687526020870195909552938501929092526060840152608083015260a082015260c00161026b565b600a546102cc906001600160a01b031681565b6104ef6104b7366004611d56565b60076020525f908152604090208054600182015460028301546003840154600485015460059095015460ff9094169492939192909186565b6040805196151587526020870195909552938501929092526060840152608083015260a082015260c00161026b565b61026161052c366004611faf565b61113f565b61026160045481565b610261610548366004611d6f565b61116d565b61026169152d02c7e14af680000081565b61036e61056c366004611d56565b6001600160a01b03165f9081526007602052604090205460ff1690565b610287610597366004611d6f565b61135d565b6102616105aa366004611d56565b60066020525f908152604090205481565b6102876105c936600461203e565b6113e1565b61026169021e19e0c9bab240000081565b610261670de0b6b3a764000081565b610261600a81565b610287610604366004611d56565b611587565b610287610617366004611d56565b6115d8565b610261600c5481565b6040516370a0823160e01b81523060048201525f9081906001600160a01b037f000000000000000000000000000000000000000000000000000000000000000016906370a0823190602401602060405180830381865afa15801561068b573d5f5f3e3d5ffd5b505050506040513d601f19601f820116820180604052508101906106af91906120a8565b6040516370a0823160e01b81523060048201529091505f906001600160a01b037f000000000000000000000000000000000000000000000000000000000000000016906370a0823190602401602060405180830381865afa158015610716573d5f5f3e3d5ffd5b505050506040513d601f19601f8201168201806040525081019061073a91906120a8565b905061074681836120d3565b9250505090565b335f9081526007602052604090205460ff1661077c5760405163a95362b560e01b815260040160405180910390fd5b60095f82600281111561079157610791611d86565b60028111156107a2576107a2611d86565b815260208101919091526040015f206001015465010000000000900460ff166108055760405162461bcd60e51b815260206004820152601060248201526f496e76616c696420737472617465677960801b60448201526064015b60405180910390fd5b335f908152600860205260409020805460ff811691839160ff1916600183600281111561083457610834611d86565b0217905550336001600160a01b03167f7b849fd02893af4f5628708e216ebbf2d0f6929320cf7370d5cc08852202cf5a82846040516108749291906120e6565b60405180910390a25050565b6001600160a01b0381165f9081526006602052604081205481906108a390611615565b6001600160a01b0384165f908152600760205260409020600281015460039091015491925090816108d482856120d3565b11156108f857816108e582856120d3565b6108ef9190612101565b95945050505050565b505f949350505050565b5f61090b611645565b6109148261166d565b335f9081526006602052604090205490915081111561094657604051633999656760e01b815260040160405180910390fd5b335f9081526006602052604081208054839290610964908490612101565b925050819055508060055f82825461097c9190612101565b9091555050335f90815260076020526040812060030180548492906109a29084906120d3565b9091555050335f90815260076020526040812042600490910155600d80548492906109ce9084906120d3565b90915550506040516370a0823160e01b81523060048201525f907f00000000000000000000000000000000000000000000000000000000000000006001600160a01b0316906370a0823190602401602060405180830381865afa158015610a37573d5f5f3e3d5ffd5b505050506040513d601f19601f82011682018060405250810190610a5b91906120a8565b905082811015610a7d575f610a708285612101565b9050610a7b816116ac565b505b610ab16001600160a01b037f00000000000000000000000000000000000000000000000000000000000000001633856117a5565b604080518481526020810184905233917f92ccf450a286a957af52509bc1c9939d1a6a481783e142e41e2499f0bb66ebc6910160405180910390a250610af76001600255565b919050565b610b04611804565b610b0c611831565b565b60096020525f9081526040902080548190610b2890612114565b80601f0160208091040260200160405190810160405280929190818152602001828054610b5490612114565b8015610b9f5780601f10610b7657610100808354040283529160200191610b9f565b820191905f5260205f20905b815481529060010190602001808311610b8257829003601f168201915b5050506001909301549192505060ff80821691610100810482169161ffff62010000830416916401000000008104821691650100000000009091041686565b610be6611804565b6001600160a01b038116610c0d5760405163d92e233d60e01b815260040160405180910390fd5b600a80546001600160a01b0319166001600160a01b0392909216919091179055565b6001600160a01b0381165f90815260066020526040812054610c5090611615565b92915050565b610c5e611804565b610b0c5f611883565b6001546001600160a01b0316331480610c8a5750600a546001600160a01b031633145b610cc55760405162461bcd60e51b815260206004820152600c60248201526b155b985d5d1a1bdc9a5e995960a21b60448201526064016107fc565b5f610cce610625565b90505f6064610cde600a8461214c565b610ce89190612163565b6040516370a0823160e01b81523060048201529091505f906001600160a01b037f000000000000000000000000000000000000000000000000000000000000000016906370a0823190602401602060405180830381865afa158015610d4f573d5f5f3e3d5ffd5b505050506040513d601f19601f82011682018060405250810190610d7391906120a8565b905081811015610d99575f610d888284612101565b9050610d93816116ac565b50610dc3565b610da482600261214c565b811115610dc3575f610db68383612101565b9050610dc1816118d4565b505b42600e556040516370a0823160e01b81523060048201527f83387a3342ff1ebc5e437dc9ae0f98274afda12a11cf547eebec05a3e0b8f8a7907f00000000000000000000000000000000000000000000000000000000000000006001600160a01b0316906370a0823190602401602060405180830381865afa158015610e4b573d5f5f3e3d5ffd5b505050506040513d601f19601f82011682018060405250810190610e6f91906120a8565b6040516370a0823160e01b81523060048201527f00000000000000000000000000000000000000000000000000000000000000006001600160a01b0316906370a0823190602401602060405180830381865afa158015610ed1573d5f5f3e3d5ffd5b505050506040513d601f19601f82011682018060405250810190610ef591906120a8565b604080519283526020830191909152429082015260600160405180910390a1505050565b610f21611804565b610b0c611b7b565b336001600160a01b037f00000000000000000000000000000000000000000000000000000000000000001614610f7257604051635c427cd960e01b815260040160405180910390fd5b5f82806020019051810190610f87919061231a565b9050610f938183611bb8565b505050565b610fa0611804565b60035460ff16610fdf5760405162461bcd60e51b815260206004820152600a602482015269139bdd081c185d5cd95960b21b60448201526064016107fc565b611005610ff46001546001600160a01b031690565b6001600160a01b03841690836117a5565b5050565b5f5f5f5f5f5f611017610625565b6005546040516370a0823160e01b81523060048201527f00000000000000000000000000000000000000000000000000000000000000006001600160a01b0316906370a0823190602401602060405180830381865afa15801561107c573d5f5f3e3d5ffd5b505050506040513d601f19601f820116820180604052508101906110a091906120a8565b6040516370a0823160e01b81523060048201527f00000000000000000000000000000000000000000000000000000000000000006001600160a01b0316906370a0823190602401602060405180830381865afa158015611102573d5f5f3e3d5ffd5b505050506040513d601f19601f8201168201806040525081019061112691906120a8565b600c54600d54949b939a50919850965094509092509050565b6004545f9061116157604051632b38492f60e21b815260040160405180910390fd5b506004545b9392505050565b5f611176611645565b61117e611c30565b335f9081526007602052604090205460ff166111ad5760405163a95362b560e01b815260040160405180910390fd5b670de0b6b3a76400008210156111d65760405163162908e360e11b815260040160405180910390fd5b69021e19e0c9bab24000008211156112015760405163e4bac01b60e01b815260040160405180910390fd5b69152d02c7e14af680000082611215610625565b61121f91906120d3565b111561123e5760405163a84b0dcd60e01b815260040160405180910390fd5b6112478261166d565b335f9081526006602052604081208054929350839290919061126a9084906120d3565b925050819055508060055f82825461128291906120d3565b9091555050335f90815260076020526040812060020180548492906112a89084906120d3565b9091555050335f90815260076020526040812042600490910155600c80548492906112d49084906120d3565b9091555061130f90506001600160a01b037f000000000000000000000000000000000000000000000000000000000000000016333085611c54565b611318826118d4565b604080518381526020810183905233917f73a19dd210f1a7f902193214c0ee91dd35ee5b4d920cba8d519eca65a7b488ca910160405180910390a2610af76001600255565b611365611804565b806113a65760405162461bcd60e51b8152602060048201526011602482015270125b9d985b1a590818dbdb999a59c81251607a1b60448201526064016107fc565b60048190556040518181527f7cb50cbcc1f8d172a61c1e50712dae11df01ec0e878dc5ddf057739c666f515a9060200160405180910390a150565b60208310156114035760405163a512e2ff60e01b815260040160405180910390fd5b60408110156114255760405163a512e2ff60e01b815260040160405180910390fd5b83355f61143560208285876124da565b61143e91612501565b90505f61144f6040602086886124da565b61145891612501565b90505f61146885604081896124da565b8080601f0160208091040260200160405190810160405280939291908181526020018383808284375f9201829052509394506114ab92508691508590508461113f565b90505f60025f60081b5f548c8c6040516020016114cc95949392919061251e565b60405160208183030381529060405290507f00000000000000000000000000000000000000000000000000000000000000006001600160a01b031663f7e83aee82848b8b60405160200161152293929190612558565b6040516020818303038152906040526040518363ffffffff1660e01b815260040161154e929190612571565b5f604051808303815f87803b158015611565575f5ffd5b505af1158015611577573d5f5f3e3d5ffd5b5050505050505050505050505050565b61158f611804565b6001600160a01b0381166115b65760405163d92e233d60e01b815260040160405180910390fd5b600b80546001600160a01b0319166001600160a01b0392909216919091179055565b6115e0611804565b6001600160a01b03811661160957604051631e4fbdf760e01b81525f60048201526024016107fc565b61161281611883565b50565b5f6005545f0361162657505f919050565b600554611631610625565b61163b908461214c565b610c509190612163565b600280540361166757604051633ee5aeb560e01b815260040160405180910390fd5b60028055565b5f5f611677610625565b90506005545f1480611687575080155b15611693575090919050565b80600554846116a2919061214c565b6111669190612163565b604051631a4ca37b60e21b81526001600160a01b037f000000000000000000000000000000000000000000000000000000000000000081166004830152602482018390523060448301525f917f0000000000000000000000000000000000000000000000000000000000000000909116906369328dec906064016020604051808303815f875af1158015611742573d5f5f3e3d5ffd5b505050506040513d601f19601f8201168201806040525081019061176691906120a8565b604080518281524260208201529192507f57501c8e2164a8e257532432c793d9ee7bb35236acd0592a0b029a7f80a2eb5e910160405180910390a15050565b6040516001600160a01b03838116602483015260448201839052610f9391859182169063a9059cbb906064015b604051602081830303815290604052915060e01b6020820180516001600160e01b038381831617835250505050611c93565b6001546001600160a01b03163314610b0c5760405163118cdaa760e01b81523360048201526024016107fc565b611839611cff565b6003805460ff191690557f5db9ee0a495bf2e6ff9c91a7834c1ba4fdd244a5e8aa4e537bd38aeae4b073aa335b6040516001600160a01b03909116815260200160405180910390a1565b600180546001600160a01b038381166001600160a01b0319831681179093556040519116919082907f8be0079c531659141344cd1fd0a4f28419497f9722a3daafe3b4186f6b6457e0905f90a35050565b5f60646118e2600a8461214c565b6118ec9190612163565b90505f6118f98284612101565b90508015610f9357604051636eb1769f60e11b81523060048201526001600160a01b037f0000000000000000000000000000000000000000000000000000000000000000811660248301525f917f00000000000000000000000000000000000000000000000000000000000000009091169063dd62ed3e90604401602060405180830381865afa15801561198f573d5f5f3e3d5ffd5b505050506040513d601f19601f820116820180604052508101906119b391906120a8565b905081811015611a93575f6119c88284612101565b90506001600160a01b037f00000000000000000000000000000000000000000000000000000000000000001663095ea7b37f0000000000000000000000000000000000000000000000000000000000000000611a2484866120d3565b6040516001600160e01b031960e085901b1681526001600160a01b03909216600483015260248201526044016020604051808303815f875af1158015611a6c573d5f5f3e3d5ffd5b505050506040513d601f19601f82011682018060405250810190611a909190612595565b50505b60405163617ba03760e01b81526001600160a01b037f000000000000000000000000000000000000000000000000000000000000000081166004830152602482018490523060448301525f60648301527f0000000000000000000000000000000000000000000000000000000000000000169063617ba037906084015f604051808303815f87803b158015611b26575f5ffd5b505af1158015611b38573d5f5f3e3d5ffd5b5050604080518581524260208201527f417024b58043cdc8bf5066517b4535c6c5a66e03e8f392d7fb48a3a20f668ad1935001905060405180910390a150505050565b611b83611c30565b6003805460ff191660011790557f62e78cea01bee320cd4e420270b5ea74000d11b0c9f74754ebdbfc544b05a2586118663390565b335f8181526007602090815260408083208054600160ff1991821681178355429083018190558885018051600590940193909355600885529483902080549091169055518151908152918201929092527f7e1c6d9e9f71f4c4f9c072bdd7a6eaa673772c6b1f94d93eb000abd65cdcba129101610874565b60035460ff1615610b0c5760405163d93c066560e01b815260040160405180910390fd5b6040516001600160a01b038481166024830152838116604483015260648201839052611c8d9186918216906323b872dd906084016117d2565b50505050565b5f5f60205f8451602086015f885af180611cb2576040513d5f823e3d81fd5b50505f513d91508115611cc9578060011415611cd6565b6001600160a01b0384163b155b15611c8d57604051635274afe760e01b81526001600160a01b03851660048201526024016107fc565b60035460ff16610b0c57604051638dfc202b60e01b815260040160405180910390fd5b5f60208284031215611d32575f5ffd5b813560038110611166575f5ffd5b80356001600160a01b0381168114610af7575f5ffd5b5f60208284031215611d66575f5ffd5b61116682611d40565b5f60208284031215611d7f575f5ffd5b5035919050565b634e487b7160e01b5f52602160045260245ffd5b60038110611db657634e487b7160e01b5f52602160045260245ffd5b9052565b60208101610c508284611d9a565b5f81518084528060208401602086015e5f602082860101526020601f19601f83011685010191505092915050565b60c081525f611e0860c0830189611dc8565b60ff978816602084015295871660408301525061ffff9390931660608401529316608082015291151560a090920191909152919050565b634e487b7160e01b5f52604160045260245ffd5b6040516101a081016001600160401b0381118282101715611e7657611e76611e3f565b60405290565b604051601f8201601f191681016001600160401b0381118282101715611ea457611ea4611e3f565b604052919050565b5f6001600160401b03821115611ec457611ec4611e3f565b50601f01601f191660200190565b5f82601f830112611ee1575f5ffd5b8135611ef4611eef82611eac565b611e7c565b818152846020838601011115611f08575f5ffd5b816020850160208301375f918101602001919091529392505050565b5f5f60408385031215611f35575f5ffd5b82356001600160401b03811115611f4a575f5ffd5b611f5685828601611ed2565b92505060208301356001600160401b03811115611f71575f5ffd5b611f7d85828601611ed2565b9150509250929050565b5f5f60408385031215611f98575f5ffd5b611fa183611d40565b946020939093013593505050565b5f5f5f60608486031215611fc1575f5ffd5b833592506020840135915060408401356001600160401b03811115611fe4575f5ffd5b611ff086828701611ed2565b9150509250925092565b5f5f83601f84011261200a575f5ffd5b5081356001600160401b03811115612020575f5ffd5b602083019150836020828501011115612037575f5ffd5b9250929050565b5f5f5f5f60408587031215612051575f5ffd5b84356001600160401b03811115612066575f5ffd5b61207287828801611ffa565b90955093505060208501356001600160401b03811115612090575f5ffd5b61209c87828801611ffa565b95989497509550505050565b5f602082840312156120b8575f5ffd5b5051919050565b634e487b7160e01b5f52601160045260245ffd5b80820180821115610c5057610c506120bf565b604081016120f48285611d9a565b6111666020830184611d9a565b81810381811115610c5057610c506120bf565b600181811c9082168061212857607f821691505b60208210810361214657634e487b7160e01b5f52602260045260245ffd5b50919050565b8082028115828204841417610c5057610c506120bf565b5f8261217d57634e487b7160e01b5f52601260045260245ffd5b500490565b5f82601f830112612191575f5ffd5b61219b6080611e7c565b8060808401858111156121ac575f5ffd5b845b818110156121c65780518452602093840193016121ae565b509095945050505050565b5f82601f8301126121e0575f5ffd5b81516121ee611eef82611eac565b818152846020838601011115612202575f5ffd5b8160208501602083015e5f918101602001919091529392505050565b5f82601f83011261222d575f5ffd5b81516001600160401b0381111561224657612246611e3f565b8060051b61225660208201611e7c565b91825260208185018101929081019086841115612271575f5ffd5b6020860192505b838310156122b65782516001600160401b03811115612295575f5ffd5b6122a4886020838a01016121d1565b83525060209283019290910190612278565b9695505050505050565b80518015158114610af7575f5ffd5b5f82601f8301126122de575f5ffd5b6122e86060611e7c565b8060608401858111156122f9575f5ffd5b845b818110156121c65761230c816122c0565b8452602093840193016122fb565b5f6020828403121561232a575f5ffd5b81516001600160401b0381111561233f575f5ffd5b82016102408185031215612351575f5ffd5b612359611e53565b81518152602080830151908201526040808301519082015261237e8560608401612182565b606082015260e08201516001600160401b0381111561239b575f5ffd5b6123a7868285016121d1565b6080830152506101008201516001600160401b038111156123c6575f5ffd5b6123d28682850161221e565b60a0830152506101208201516001600160401b038111156123f1575f5ffd5b6123fd868285016121d1565b60c0830152506101408201516001600160401b0381111561241c575f5ffd5b612428868285016121d1565b60e0830152506101608201516001600160401b03811115612447575f5ffd5b612453868285016121d1565b610100830152506101808201516001600160401b03811115612473575f5ffd5b61247f868285016121d1565b610120830152506101a08201516001600160401b0381111561249f575f5ffd5b6124ab868285016121d1565b610140830152506101c08201516101608201526124cc856101e084016122cf565b610180820152949350505050565b5f5f858511156124e8575f5ffd5b838611156124f4575f5ffd5b5050820193919092039150565b80356020831015610c50575f19602084900360031b1b1692915050565b60f886901b6001600160f81b031916815260ff198516600182015260208101849052818360408301375f9101604001908152949350505050565b838152818360208301375f910160200190815292915050565b604081525f6125836040830185611dc8565b82810360208401526108ef8185611dc8565b5f602082840312156125a5575f5ffd5b611166826122c056fea26469706673582212200ed33cde244588272da5d0ed23b4ccbad20e7e2a6cfd1e5cde77780c55596f5764736f6c634300081c0033",
  "linkReferences": {},
  "deployedLinkReferences": {},
  "immutableReferences": {
    "1028": [
      {
        "length": 32,
        "start": 3892
      },
      {
        "length": 32,
        "start": 5343
      }
    ],
    "4244": [
      {
        "length": 32,
        "start": 745
      },
      {
        "length": 32,
        "start": 1606
      },
      {
        "length": 32,
        "start": 2538
      },
      {
        "length": 32,
        "start": 2698
      },
      {
        "length": 32,
        "start": 3338
      },
      {
        "length": 32,
        "start": 3716
      },
      {
        "length": 32,
        "start": 4143
      },
      {
        "length": 32,
        "start": 4839
      },
      {
        "length": 32,
        "start": 5827
      },
      {
        "length": 32,
        "start": 6472
      },
      {
        "length": 32,
        "start": 6612
      },
      {
        "length": 32,
        "start": 6826
      }
    ],
    "4247": [
      {
        "length": 32,
        "start": 682
      },
      {
        "length": 32,
        "start": 1745
      },
      {
        "length": 32,
        "start": 3582
      },
      {
        "length": 32,
        "start": 4277
      }
    ],
    "4250": [
      {
        "length": 32,
        "start": 1087
      },
      {
        "length": 32,
        "start": 5882
      },
      {
        "length": 32,
        "start": 6430
      },
      {
        "length": 32,
        "start": 6651
      },
      {
        "length": 32,
        "start": 6885
      }
    ]
  },
  "inputSourceName": "project/contracts/AttestifyVault.sol",
  "buildInfoId": "solc-0_8_28-e499908594540dbe7d7328278f48564a898a6575"
}